{"contracts/SimpleCounter.sol":{"SimpleCounter":{"abi":[{"anonymous":false,"inputs":[{"indexed":false,"internalType":"address","name":"msgSender","type":"address"},{"indexed":false,"internalType":"uint256","name":"newCounterValue","type":"uint256"},{"indexed":false,"internalType":"uint256","name":"timestamp","type":"uint256"}],"name":"IncrementCounter","type":"event"},{"anonymous":false,"inputs":[{"indexed":true,"internalType":"uint256","name":"timeStamp","type":"uint256"},{"indexed":false,"internalType":"uint256","name":"price","type":"uint256"}],"name":"PriceUpdated","type":"event"},{"inputs":[],"name":"counter","outputs":[{"internalType":"uint256","name":"","type":"uint256"}],"stateMutability":"view","type":"function"},{"inputs":[],"name":"increment","outputs":[],"stateMutability":"nonpayable","type":"function"},{"inputs":[],"name":"price","outputs":[{"internalType":"uint256","name":"","type":"uint256"}],"stateMutability":"view","type":"function"},{"inputs":[{"internalType":"uint256","name":"_price","type":"uint256"}],"name":"updatePrice","outputs":[],"stateMutability":"nonpayable","type":"function"}],"devdoc":{"kind":"dev","methods":{},"version":1},"evm":{"bytecode":{"linkReferences":{},"object":"608060405234801561001057600080fd5b5061019d806100206000396000f3fe608060405234801561001057600080fd5b506004361061004c5760003560e01c806361bc221a146100515780638d6cc56d1461006c578063a035b1fe14610081578063d09de08a1461008a575b600080fd5b61005a60005481565b60405190815260200160405180910390f35b61007f61007a366004610127565b610092565b005b61005a60015481565b61007f6100cf565b600181905560405181815242907f945c1c4e99aa89f648fbfe3df471b916f719e16d960fcec0737d4d56bd6968389060200160405180910390a250565b6000805490806100de83610140565b90915550506000546040805133815260208101929092524282820152517f04125654de600237c57852895f8a3e030f839e01c2db98f430af4a7ccc37f9b89181900360600190a1565b60006020828403121561013957600080fd5b5035919050565b60006001820161016057634e487b7160e01b600052601160045260246000fd5b506001019056fea26469706673582212202724b1a262e186ff6cfcc9c10fa818306e1b9e37b905c3f5e7d5f19d1dfe916764736f6c63430008170033","opcodes":"PUSH1 0x80 PUSH1 0x40 MSTORE CALLVALUE DUP1 ISZERO PUSH2 0x10 JUMPI PUSH1 0x0 DUP1 REVERT JUMPDEST POP PUSH2 0x19D DUP1 PUSH2 0x20 PUSH1 0x0 CODECOPY PUSH1 0x0 RETURN INVALID PUSH1 0x80 PUSH1 0x40 MSTORE CALLVALUE DUP1 ISZERO PUSH2 0x10 JUMPI PUSH1 0x0 DUP1 REVERT JUMPDEST POP PUSH1 0x4 CALLDATASIZE LT PUSH2 0x4C JUMPI PUSH1 0x0 CALLDATALOAD PUSH1 0xE0 SHR DUP1 PUSH4 0x61BC221A EQ PUSH2 0x51 JUMPI DUP1 PUSH4 0x8D6CC56D EQ PUSH2 0x6C JUMPI DUP1 PUSH4 0xA035B1FE EQ PUSH2 0x81 JUMPI DUP1 PUSH4 0xD09DE08A EQ PUSH2 0x8A JUMPI JUMPDEST PUSH1 0x0 DUP1 REVERT JUMPDEST PUSH2 0x5A PUSH1 0x0 SLOAD DUP2 JUMP JUMPDEST PUSH1 0x40 MLOAD SWAP1 DUP2 MSTORE PUSH1 0x20 ADD PUSH1 0x40 MLOAD DUP1 SWAP2 SUB SWAP1 RETURN JUMPDEST PUSH2 0x7F PUSH2 0x7A CALLDATASIZE PUSH1 0x4 PUSH2 0x127 JUMP JUMPDEST PUSH2 0x92 JUMP JUMPDEST STOP JUMPDEST PUSH2 0x5A PUSH1 0x1 SLOAD DUP2 JUMP JUMPDEST PUSH2 0x7F PUSH2 0xCF JUMP JUMPDEST PUSH1 0x1 DUP2 SWAP1 SSTORE PUSH1 0x40 MLOAD DUP2 DUP2 MSTORE TIMESTAMP SWAP1 PUSH32 0x945C1C4E99AA89F648FBFE3DF471B916F719E16D960FCEC0737D4D56BD696838 SWAP1 PUSH1 0x20 ADD PUSH1 0x40 MLOAD DUP1 SWAP2 SUB SWAP1 LOG2 POP JUMP JUMPDEST PUSH1 0x0 DUP1 SLOAD SWAP1 DUP1 PUSH2 0xDE DUP4 PUSH2 0x140 JUMP JUMPDEST SWAP1 SWAP2 SSTORE POP POP PUSH1 0x0 SLOAD PUSH1 0x40 DUP1 MLOAD CALLER DUP2 MSTORE PUSH1 0x20 DUP2 ADD SWAP3 SWAP1 SWAP3 MSTORE TIMESTAMP DUP3 DUP3 ADD MSTORE MLOAD PUSH32 0x4125654DE600237C57852895F8A3E030F839E01C2DB98F430AF4A7CCC37F9B8 SWAP2 DUP2 SWAP1 SUB PUSH1 0x60 ADD SWAP1 LOG1 JUMP JUMPDEST PUSH1 0x0 PUSH1 0x20 DUP3 DUP5 SUB SLT ISZERO PUSH2 0x139 JUMPI PUSH1 0x0 DUP1 REVERT JUMPDEST POP CALLDATALOAD SWAP2 SWAP1 POP JUMP JUMPDEST PUSH1 0x0 PUSH1 0x1 DUP3 ADD PUSH2 0x160 JUMPI PUSH4 0x4E487B71 PUSH1 0xE0 SHL PUSH1 0x0 MSTORE PUSH1 0x11 PUSH1 0x4 MSTORE PUSH1 0x24 PUSH1 0x0 REVERT JUMPDEST POP PUSH1 0x1 ADD SWAP1 JUMP INVALID LOG2 PUSH5 0x6970667358 0x22 SLT KECCAK256 0x27 0x24 0xB1 LOG2 PUSH3 0xE186FF PUSH13 0xFCC9C10FA818306E1B9E37B905 0xC3 CREATE2 0xE7 0xD5 CALL SWAP14 SAR INVALID SWAP2 PUSH8 0x64736F6C63430008 OR STOP CALLER "},"gasEstimates":{"creation":{"codeDepositCost":"82600","executionCost":"129","totalCost":"82729"},"external":{"counter()":"2261","increment()":"28186","price()":"2305","updatePrice(uint256)":"23769"}},"methodIdentifiers":{"counter()":"61bc221a","increment()":"d09de08a","price()":"a035b1fe","updatePrice(uint256)":"8d6cc56d"}},"storageLayout":{"storage":[{"astId":3,"contract":"contracts/SimpleCounter.sol:SimpleCounter","label":"counter","offset":0,"slot":"0","type":"t_uint256"},{"astId":5,"contract":"contracts/SimpleCounter.sol:SimpleCounter","label":"price","offset":0,"slot":"1","type":"t_uint256"}],"types":{"t_uint256":{"encoding":"inplace","label":"uint256","numberOfBytes":"32"}}},"userdoc":{"kind":"user","methods":{},"version":1}}}}